:100000000C946E000C94440A0C941D0A0C94A20AE1
:100010000C94A20A0C94A20A0C9496000C949600DC
:100020000C9496000C9496000C9496000C946B0A19
:100030000C9496000C9496000C9496000C949600E8
:100040000C94D3090C9496000C94A1090C947B0990
:100050000C9496000C9496000C9496000C949600C8
:100060000C941A0B0C94960000000000240027004A
:100070002A0031313A33303A3033004D6179203241
:10008000372032303230000000000800020100004A
:10009000030407000000000000000000000000232F
:1000A000002600290000000000250028002B000485
:1000B000040404040404040202020202020303030F
:1000C0000303030102040810204080010204081009
:1000D0002001020408102000390C901411241FBEC6
:1000E000CFEFD8E0DEBFCDBF25E0A6EAB3E001C088
:1000F0001D92A53AB207E1F713E0A0E0B1E0ECE908
:10010000F2E302C005900D92A63AB107D9F710E0CC
:10011000CDE6D0E004C02197FE010E942117CC3625
:10012000D107C9F70E94680D0C9441190C94000086
:10013000982F2091AB0481E0213208F043C08091D8
:1001400087048111FCCF8091AA0432E030938704A8
:10015000909386049FEF90938504109284042093DB
:100160008304AAE8B4E0E3E6F4E090E0291331C0A8
:100170001092620490916204880F892B809362042C
:1001800080916104813049F510926104809162048C
:100190008093BB008091BC0083FDF8CF85EC8093F9
:1001A000BC00809187048230E1F3809185048F3F09
:1001B000B1F0809185048032A1F080918504803374
:1001C00091F084E0109289041092AB04109288049C
:1001D00008953D9131939F5FC9CF85EEE0CF80E0D8
:1001E000F1CF82E0EFCF83E0EDCF8091600491E02A
:1001F0008927809360040895089508950895AF9223
:10020000BF92CF92DF92EF92FF920F931F93CF9303
:10021000DF936C017B018B01040F151FEB015E0165
:10022000AE18BF08C017D10759F06991D601ED91FA
:10023000FC910190F081E02DC6010995892B79F799
:10024000C501DF91CF911F910F91FF90EF90DF904B
:10025000CF90BF90AF900895FC01538D448D252F12
:1002600030E0842F90E0821B930B541710F0CF9650
:10027000089501970895FC01918D828D981761F082
:10028000A28DAE0FBF2FB11D5D968C91928D9F5F99
:100290009F73928F90E008958FEF9FEF0895FC0178
:1002A000918D828D981731F0828DE80FF11D858D2B
:1002B00090E008958FEF9FEF0895FC01918D228DBE
:1002C000892F90E0805C9F4F821B91098F73992743
:1002D00008958CEA94E00E945D0121E0892B09F4E5
:1002E00020E0822F089580E090E0892B29F00E9481
:1002F000690181110C9400000895FC01A48DA80FE0
:10030000B92FB11DA35ABF4F2C91848D90E0019657
:100310008F739927848FA689B7892C93A089B18977
:100320008C91837080648C93938D848D981306C018
:100330000288F389E02D80818F7D80830895EF927C
:10034000FF920F931F93CF93DF93EC0181E0888F8F
:100350009B8D8C8D98131AC0E889F989808185FF5F
:1003600015C09FB7F894EE89FF896083E889F98901
:1003700080818370806480839FBF81E090E0DF9103
:10038000CF911F910F91FF90EF900895F62E0B8D56
:1003900010E00F5F1F4F0F731127E02E8C8D8E1111
:1003A0000CC00FB607FCFACFE889F989808185FF78
:1003B000F5CFCE010E947D01F1CFEB8DEC0FFD2F2B
:1003C000F11DE35AFF4FF0829FB7F8940B8FEA8933
:1003D000FB8980818062CFCFCF93DF93EC01888D42
:1003E0008823B9F0AA89BB89E889F9898C9185FDB0
:1003F00003C0808186FD0DC00FB607FCF7CF8C913E
:1004000085FFF2CF808185FFEDCFCE010E947D0177
:10041000E9CFDF91CF910895833081F028F48130C6
:1004200099F08230A9F008958730A9F08830C9F09A
:100430008430B1F4809180008F7D03C08091800072
:100440008F7780938000089584B58F7784BD089559
:1004500084B58F7DFBCF8091B0008F778093B00003
:1004600008958091B0008F7DF9CF1F93CF93DF93D4
:10047000282F30E0F901E957FF4F8491F901ED533E
:10048000FF4FD491F901E155FF4FC491CC23A9F05E
:10049000162F81110E940C02EC2FF0E0EE0FFF1FCF
:1004A000EB55FF4FA591B4918FB7F894EC911111D2
:1004B00008C0D095DE23DC938FBFDF91CF911F91D1
:1004C0000895DE2BF8CFCF93DF93EC0180917C056C
:1004D00090917D05029749F4C130D10509F43BC0E4
:1004E0006CF560E0209709F437C080917C0590910D
:1004F0007D05049749F4C130D10509F45CC00CF0C6
:1005000037C0209709F442C080917C0590917D0509
:10051000059709F0E5C0CA30D10508F0E1C0FE0139
:10052000EC56FD4F0C942117F302FF021003260333
:10053000410343034A03560367036E03C230D105E8
:10054000A9F060E0C330D10581F6809180050E945A
:10055000350260E006C061E0809180050E943502AE
:1005600061E0809182050E943502BFCF61E0EDCF4E
:10057000C230D10539F1C330D10509F0C5CF61E0F2
:10058000809180050E94350260E022C061E0809188
:1005900080050E94350260E0809182050E9435024C
:1005A00061E0809184050E94350260E080918605BB
:1005B0000E943502A9CF60E0809180050E9435023B
:1005C00061E0EACF60E0809180050E94350261E041
:1005D000809182050E94350260E0809184050E942E
:1005E000350261E0E3CF60E0809180050E94350232
:1005F00061E0809182050E94350261E00BC060E0FD
:10060000809180050E94350261E0809182050E9400
:10061000350260E0809184050E94350260E010C0E0
:1006200060E0809180050E94350261E08091820542
:100630000E94350260E0809184050E94350261E0ED
:10064000809186050E94350261E015C060E08091CE
:1006500080050E94350261E0809182050E9435028A
:1006600060E0809184050E94350261E080918605FA
:100670000E94350260E080918805DF91CF910C9453
:10068000350261E0E4CF61E0809180050E9435028F
:1006900060E0E2CF61E0809180050E94350260E079
:1006A000809182050E94350261E0DBCF61E080919C
:1006B00080050E94350260E0809182050E9435022B
:1006C00061E0809184050E94350260E0CFCF61E057
:1006D000809180050E94350260E08BCF60E0F8CF0A
:1006E000DF91CF910895CF93DF9390E0FC01ED531C
:1006F000FF4F249181559F4FFC0184918823D1F0B5
:1007000090E0880F991FFC01E859FF4FA591B49123
:10071000FC01EB55FF4FC591D49161110EC09FB7FD
:10072000F8948C91E22FE0958E238C932881E2231C
:10073000E8839FBFDF91CF9108958FB7F894EC9134
:10074000E22BEC938FBFF6CF3FB7F89480912E0445
:1007500090912F04A0913004B091310426B5A89B4C
:1007600005C02F3F19F00196A11DB11D3FBFBA2F43
:10077000A92F982F8827BC01CD01620F711D811D03
:10078000911D42E0660F771F881F991F4A95D1F788
:1007900008954F925F926F927F928F929F92AF9245
:1007A000BF92EF92FF920F931F93CF93DF93EC01D1
:1007B00097FF04C0CC27DD27C81BD90B18161906D4
:1007C0000CF061C081E090E0909375058093740512
:1007D00004E010E08AE0E82EF12C209709F46FC0C5
:1007E0000E94A40380908A0590908B05A0908C05B0
:1007F000B0908D052B013C01481859086A087B0808
:100800008090760590907705A0907805B090790556
:10081000481459046A047B0400F360938A057093BA
:100820008B0580938C0590938D0580917E0590912A
:100830007F0520917405309175052130310559F5FA
:10084000019690937F0580937E0520917A053091E3
:100850007B058217930721F410927F0510927E0585
:10086000219780917E0590917F0520917C053091A4
:100870007D05B7012530310509F0B8010E94CC167D
:100880000E946302AACF892B09F4A2CF10927505AA
:10089000109274059DCF892B41F480917A05909137
:1008A0007B0590937F0580937E0580917E059091D6
:1008B0007F05019790937F0580937E05D1CFDF91CF
:1008C000CF911F910F91FF90EF90BF90AF909F90AD
:1008D0008F907F906F905F904F9008958F929F922E
:1008E000AF92BF92CF92DF92EF92FF926B017C01A9
:1008F0000E94A4034B015C01C114D104E104F10482
:10090000B9F00E94A403681979098A099B09683E15
:1009100073408105910580F321E0C21AD108E108F6
:10092000F10888EE880E83E0981EA11CB11CE4CF6C
:10093000FF90EF90DF90CF90BF90AF909F908F90FF
:1009400008952FB7F89460912A0470912B04809138
:100950002C0490912D042FBF08950895EFE6F0E048
:1009600080818D7F808382E08093810081E080930D
:10097000800029982A9808952091380430913904EC
:100980002817390771F4909136048091370498172D
:1009900041F0E0913604F0E0E751FC4F808190E0B7
:1009A00008958FEF9FEF08950895EF92FF920F93B0
:1009B0001F93CF93DF93DC015C96ED90FC905D97E5
:1009C000E114F10479F481E090E013969C938E9306
:1009D000129790E080E0DF91CF911F910F91FF90EF
:1009E000EF9008955196ED91FC91529750968C910D
:1009F0005097982F90950FB75E962C915E97122F77
:100A0000127021FD6095F8942081112319F1282B93
:100A10002083E7012197F1F728E0462F50E030814D
:100A200060FF1AC0382B3083E7012197F1F7BA0134
:100A300075956795215089F7112381F0808189236D
:100A400080830FBF5C968D919C910197F1F781E0B7
:100A500090E0C1CF2923DCCF3923E5CF9081892BCA
:100A6000EFCF20913804309139042817390771F4F9
:100A7000809137042091360490E0805C9F4F821B68
:100A8000910960E470E00E94CC16089590E080E047
:100A90000895209138043091390428173907B9F4A2
:100AA0009091360480913704981789F0E0913604CC
:100AB000F0E0E751FC4F80812091360430E02F5F59
:100AC0003F4F2F7333272093360490E008958FEF24
:100AD0009FEF08950F931F930E94A10460935D05FB
:100AE00070935E0580935F059093600585E595E0C2
:100AF0000E94490597FF1DC00E94A10400915D0559
:100B000010915E0520915F0530916005601B710BAF
:100B1000820B930B0091590510915A0520915B05AA
:100B200030915C056017710782079307F8F28FEF29
:100B30009FEF1F910F910895FC01908190539A307F
:100B400008F090E0818180532AE0929F800D11246B
:100B5000089585ED8093BC008091BC0084FDFCCF9E
:100B60001092870408952091C603260F3327331F60
:100B700021323105ECF420918704FC0190E080E003
:100B8000243069F082E00895A091C6032191AC0160
:100B90004A555C4FA40FB52FB11D2C9301968617B3
:100BA00098F38091C603680F6093C60380E00895B0
:100BB00081E00895E0913B0480913A04E81730F415
:100BC000F0E0E45CFB4F808190E008958FEF9FEFB1
:100BD000089590913B0480913A042FEF3FEF9817CE
:100BE00048F4E92FF0E0E45CFB4F208130E09F5FA8
:100BF00090933B04C901089580913A0490913B047D
:100C0000891B990B0895CF92DF92EF92FF920F9379
:100C10001F93CF93DF937C01CB018A01209188043D
:100C2000222389F0EB016B01C40ED51ECC15DD0526
:100C300069F06991D701ED91FC910190F081E02D6F
:100C4000C7010995F3CF642F0E94B305C801DF9156
:100C5000CF911F910F91FF90EF90DF90CF9008956B
:100C6000CF93DF931F92CDB7DEB7698320918804BD
:100C70002223F9F02091AB04203258F021E030E03B
:100C8000FC013383228390E080E00F90DF91CF91CD
:100C9000089580918904E82FF0E0E657FB4F998191
:100CA00090838F5F809389048093AB0481E090E010
:100CB000ECCF61E0CE0101960E94B305F7CFFC01B5
:100CC000248131E0309388042093AA04109289048F
:100CD0001092AB048485682B89E495E00E9430066D
:100CE00081E00C94980090E080E008950F931F93AA
:100CF000CF938C01C62F0E945F066C2F6460C801E1
:100D00000E945F066C2F6B7FC8010E945F0683EC18
:100D100090E00197F1F7CF911F910F9108950F93F4
:100D20001F93CF93DF938C01D62FC42F607F642B4A
:100D30000E94760680E1D89FB00111246C2BC80177
:100D4000DF91CF911F910F910C947606CF93DF9393
:100D5000CDB7DEB728970FB6F894DEBF0FBECDBF74
:100D600098E0EAE0F1E0DE01119601900D929A958B
:100D7000E1F790919605961708F46FEF262F30E073
:100D8000220F331F41E050E04C0F5D1F240F351F31
:100D9000F9016081680F606840E08EE895E0289670
:100DA0000FB6F894DEBF0FBECDBFDF91CF910C948C
:100DB0008F0640E061E08EE895E00E948F068BE3AD
:100DC0009FE10197F1F780919705882321F060E07A
:100DD00080E00C94A606089541E00E948F0681E011
:100DE00090E00895FC0124813581232B49F06EEDBC
:100DF00072E0808191810E94311921E0892B09F0F4
:100E000020E0822F0895CF93DF93FC012481358168
:100E1000232B71F0C081D18166E270E0CE010E9487
:100E20002619009729F08C1B9D0BDF91CF91089517
:100E30008FEF9FEFFACF8F929F92AF92BF92CF9298
:100E4000DF92EF92FF920F931F93CF93DF93FC01FA
:100E500001900020E9F731978F01081B190B7C01E5
:100E6000D0E0C0E0A9F430E020E081E0232B09F0DD
:100E700080E0DF91CF911F910F91FF90EF90DF9075
:100E8000CF90BF90AF909F908F900895C1E0D0E039
:100E90000E946A0597FD3AC0F701EC0FFD1F208103
:100EA000022E000C330B8217930759F1209781F320
:100EB0004F01AE012197D4012E914D01022E000C5D
:100EC000330B2817390719F0209799F7E1CF2097AE
:100ED000E9F2B7016F01CC1ADD0A30E020E0DB0156
:100EE000AD90BD01D601BD906D01AB1005C02F5F67
:100EF0003F4F2C173D0798F3C217D307D1F6EA01ED
:100F0000C7CF21960C171D0719F6ADCF2FEF3FEF76
:100F1000ACCFFB0101900020E9F73197AF01461BF0
:100F2000570BDC01ED91FC910280F381E02D0994D7
:100F3000CF93DF93FC0144815581608171818CEAFC
:100F400094E00E94FF00EC0161E373E08CEA94E01E
:100F50000E9489078C0F9D1FDF91CF9108958F927A
:100F60009F92AF92BF920F931F93CF93DF93CDB712
:100F7000DEB7A1970FB6F894DEBF0FBECDBF19A2A2
:100F8000423008F44AE08E010F5D1F4F842E912CF1
:100F9000B12CA12CA50194010E94E016E62FB90105
:100FA000CA01EA3004F5E05DD801EE938D01232BF0
:100FB000242B252B79F790E080E0109729F0BD01D4
:100FC0008EE895E00E948907A1960FB6F894DEBFDF
:100FD0000FBECDBFDF91CF911F910F91BF90AF900A
:100FE0009F908F900895E95CDFCF0F931F93CF936D
:100FF000DF938C01EB01FC01808191810097E1F08E
:101000006881798161157105A9F0428153812C8134
:101010003D814217530770F00E943A198C819D81DF
:10102000F801958384831D821C82DF91CF911F91EB
:101030000F9108950E94D71788819981F8019183B3
:1010400080838A819B81938382838C819D81958318
:101050008483198218821B821A82E5CFCF93DF9393
:10106000EC0188819981009711F00E94D7171982AD
:1010700018821D821C821B821A82DF91CF910895F3
:10108000FC0180819181009711F00C94D71708958D
:101090000F931F93CF93DF93EC0188819981009781
:1010A00059F02A813B812617370730F081E0DF9124
:1010B000CF911F910F9108958B016F5F7F4F0E9419
:1010C0006018009759F0998388831B830A832C81C9
:1010D0003D81232B59F7FC011082E8CF80E0E7CF58
:1010E000EF92FF920F931F93CF93DF93EC017B015D
:1010F000198218821B821A821D821C82FB010190B8
:101100000020E9F731978F01061B170BB8010E94E9
:101110004808811109C0CE01DF91CF911F910F9135
:10112000FF90EF900C942E081D830C83B7018881EB
:101130009981DF91CF911F910F91FF90EF900C94C7
:101140003A198F929F92AF92BF92EF92FF920F93B4
:101150001F93CF93DF9300D0CDB7DEB78C017B0117
:1011600063E373E00E947008F70144815581608158
:10117000718185E595E00E94FF000E94A1044B016A
:101180005C01F8E88F0EF3E19F1EA11CB11C0E94C8
:10119000A104681579058A059B0540F585E595E06C
:1011A0000E943105892B99F385E595E00E94490558
:1011B00089831A82F801E480F580FFEFEF1AFF0AB5
:1011C000B701C8010E944808882341F3F801208133
:1011D000318184819581BE016F5F7F4F820F931FA4
:1011E0000E943A19F801F582E482D8CFF8014481CF
:1011F0005581608171818CEA94E00E94FF00C801F2
:101200000F900F90DF91CF911F910F91FF90EF9072
:10121000BF90AF909F908F9008959F92AF92BF9292
:10122000CF92DF92EF92FF920F931F93CF93DF93B2
:101230007C016B015A0189012417350720F48B2D9D
:101240005901042F182F63E373E0C7010E9470084F
:10125000D6011496CD91DC91AC16BD0650F50C1755
:101260001D0708F4E801D601ED91FC911197EC0FF0
:10127000FD1F908010820D911C910A0D1B1D011500
:10128000110571F0F80101900020E9F731975F0135
:10129000A01AB10AB501C7010E944808811116C001
:1012A000C7010E942E08D6018D919C91C80FD91FAD
:1012B0009882C701DF91CF911F910F91FF90EF901E
:1012C000DF90CF90BF90AF909F900895F701B582C7
:1012D000A482B801808191810E943A19E4CFCF9312
:1012E000DF93EC01FB01248135810E940D09CE01C1
:1012F000DF91CF9108951F920F920FB60F92112494
:101300002F933F934F935F936F937F938F939F930D
:10131000AF93BF93EF93FF938CEA94E00E947D011B
:10132000FF91EF91BF91AF919F918F917F916F91BD
:101330005F914F913F912F910F900FBE0F901F9093
:1013400018951F920F920FB60F9211242F938F931F
:101350009F93EF93FF93E091BC04F091BD048081D3
:10136000E091C204F091C30482FD1BC09081809182
:10137000C5048F5F8F732091C604821741F0E091FE
:10138000C504F0E0E455FB4F958F8093C504FF91B1
:10139000EF919F918F912F910F900FBE0F901F9003
:1013A00018958081F4CF1F920F920FB60F921124DF
:1013B0002F933F938F939F93AF93BF9380912A0472
:1013C00090912B04A0912C04B0912D04309129040C
:1013D00023E0230F2D3758F50196A11DB11D209351
:1013E000290480932A0490932B04A0932C04B09397
:1013F0002D0480912E0490912F04A0913004B0917F
:1014000031040196A11DB11D80932E0490932F04E9
:10141000A0933004B0933104BF91AF919F918F910D
:101420003F912F910F900FBE0F901F90189526E8B7
:10143000230F0296A11DB11DD2CF1F920F920FB69E
:101440000F9211242F933F934F935F936F937F934A
:101450008F939F93AF93BF93EF93FF93E09102011C
:10146000F09103010995FF91EF91BF91AF919F9189
:101470008F917F916F915F914F913F912F910F903D
:101480000FBE0F901F9018951F920F920FB60F92DC
:1014900011242F933F934F935F936F937F938F9379
:1014A0009F93AF93BF93EF93FF93E0910001F0916F
:1014B00001010995FF91EF91BF91AF919F918F919C
:1014C0007F916F915F914F913F912F910F900FBE40
:1014D0000F901F9018951F920F920FB60F92112424
:1014E0000F931F932F933F934F935F936F937F932C
:1014F0008F939F93AF93BF93EF93FF930E94A104A9
:1015000000915C0410915D0420915E0430915F04B1
:10151000601771078207930710F00E94AE04FF91D5
:10152000EF91BF91AF919F918F917F916F915F915B
:101530004F913F912F911F910F910F900FBE0F90E0
:101540001F9018951F920F920FB60F9211242F9390
:101550003F934F935F936F937F938F939F93AF933B
:10156000BF93EF93FF93E0913804F09139043097E3
:1015700049F0A685B7858585968D91FF14C09C910D
:101580008923A1F4FF91EF91BF91AF919F918F912A
:101590007F916F915F914F913F912F910F900FBE6F
:1015A0000F901F9018959C91892361F7A389B489A6
:1015B0009C918589809589238C9386899789019749
:1015C000F1F7608D718DA685B785558538E020E0EF
:1015D000CB010197F1F7822F90E095958795282F01
:1015E0004C91452309F02068315091F7868D81FD9B
:1015F00020958091370490E001968F739927309160
:101600003604381799F0A0913704B0E0A751BC4FC9
:101610002C9380933704828D938D0197F1F7A389E2
:10162000B4898C919589892B8C93ACCF868D816000
:10163000868FF1CF1F920F920FB60F9211242F9326
:101640003F934F935F936F937F938F939F93AF934A
:10165000BF93EF93FF938091B900887F803609F4A0
:101660004AC0F0F5883209F4A7C018F5803109F4B2
:101670009BC0B8F4882309F4F9C0883009F494C0F9
:10168000FF91EF91BF91AF919F918F917F916F915A
:101690005F914F913F912F910F900FBE0F901F9030
:1016A0001895883109F488C0803251F780938504F9
:1016B00014C0803409F49DC040F48033B9F38833FA
:1016C000F9F68093850485ECB0C0803509F485C0B7
:1016D000883509F496C0883499F60E94A905D0CFC0
:1016E000883909F48CC038F5883729F050F48836E9
:1016F00011F0803729F683E0809387041092E80385
:1017000057C0883809F47BC0803919F0803809F057
:10171000B7CF8091E803803208F071C0E091E80310
:1017200081E08E0F8093E8038091BB00F0E0E853E6
:10173000FC4F80833DC0803B39F0E0F4803A09F4EF
:1017400079C0883A09F09CCF84E080938704109296
:10175000C7031092C603E0913404F0913504099553
:101760008091C60381110FC081E08093C60310925F
:10177000A60309C0803C09F4A6CF883C09F4A3CF96
:10178000883B09F07DCFE091C70381E08E0F809305
:10179000C703F0E0EA55FC4F80818093BB00909135
:1017A000C7038091C60329C0809162048093BB0067
:1017B00085EC8093BC0064CF909184048091830475
:1017C000981758F5E091840481E08E0F809384048B
:1017D000F0E0ED59FB4F8081E9CFE091840481E096
:1017E0008E0F809384048091BB00F0E0ED59FB4F95
:1017F000808390918404809183049817C8F285E8CF
:10180000D8CFE091840481E08E0F8093840480918E
:10181000BB00F0E0ED59FB4F80838091860481117D
:101820005CCF81E08093610484EA8093BC001092D5
:10183000870426CF85EC8093BC00109287048091AA
:10184000E803803230F4E091E803F0E0E853FC4F25
:1018500010826091E80370E0E0913204F09133046B
:1018600088EC93E009951092E8030ACF1092850462
:1018700034CFCF92DF92EF92FF921092AF0410928A
:10188000AE0498EEC92E93E0D92EE12CF12CC09233
:10189000B004D092B104E092B204F092B30480EAB2
:1018A00092E09093AD048093AC0485EC90E090932B
:1018B000B9048093B80484EC90E09093BB048093C7
:1018C000BA0480EC90E09093BD048093BC0481EC5A
:1018D00090E09093BF048093BE0482EC90E09093DC
:1018E000C1048093C00486EC90E09093C30480937D
:1018F000C2041092C5041092C6041092C70410923C
:10190000C80410924C0510924B05C0924D05D09220
:101910004E05E0924F05F092500582EB92E09093D5
:101920004A058093490561EE72E08BE995E00E94DB
:101930007008109291051092900586ED92E09093B8
:101940008F0580938E051092970580E28093920513
:1019500080E18093980582E08093990510929A0522
:1019600010927F0510927E051092750510927405F5
:1019700010928A0510928B0510928C0510928D059D
:1019800088EC90E090937B0580937A0588E090E066
:10199000909381058093800586E090E09093830585
:1019A0008093820587E090E090938505809384057D
:1019B00085E090E0909387058093860561E088E05C
:1019C0000E94730361E0809182050E94730361E0CD
:1019D000809184050E94730361E0809186050E94D6
:1019E0007303109289051092880584E090E090932B
:1019F0007D0580937C051092580510925705C09282
:101A00005905D0925A05E0925B05F0925C0584EC92
:101A100092E0909356058093550510926C051092B4
:101A20006B0510926E0510926D0510927005109264
:101A30006F051092720510927105609173056E7FAB
:101A40006D7F609373056695617081E0682784E01F
:101A50000E94350261E084E00E947303E7ECF0E04D
:101A6000E491E0936505E3EBF0E0E491F0E0EE0F44
:101A7000FF1FEB55FF4F85919491909367058093DD
:101A8000660560E083E00E9473038091730581FD29
:101A900004C061E083E00E94350283E08093610529
:101AA000E6ECF0E0E491E0936205E2EBF0E0E49133
:101AB000F0E0EE0FFF1FE556FF4F85919491909354
:101AC000640580936305FF90EF90DF90CF900895B9
:101AD000CF93DF93CDB7DEB7C154D1090FB6F894D9
:101AE000DEBF0FBECDBF789484B5826084BD84B55F
:101AF000816084BD85B5826085BD85B5816085BD09
:101B000080916E00816080936E00109281008091C0
:101B10008100826080938100809181008160809348
:101B20008100809180008160809380008091B1006D
:101B300084608093B1008091B00081608093B00098
:101B400080917A00846080937A0080917A0082602C
:101B500080937A0080917A00816080937A008091EE
:101B60007A00806880937A001092C10061E08DE075
:101B70000E94730361E08BE00E94730361E08CE0DC
:101B80000E94730310923B0410923A04109289044D
:101B90001092AB041092870481E080938604109227
:101BA000610461E082E10E94350261E083E10E940C
:101BB00035028091B9008E7F8093B9008091B90081
:101BC0008D7F8093B90088E48093B80085E480938A
:101BD000BC008CEF90E090933504809334048DEF3B
:101BE00090E0909333048093320410929305809197
:101BF0009905823018F098E09093930580939605AC
:101C000062E370E080E090E00E946E0460919A05CB
:101C10008EE895E00E945F0668EE73E080E090E059
:101C20000E946E0460E38EE895E00E9476060BE465
:101C3000E02E06E4F02EC7010197F1F760E38EE88D
:101C400095E00E947606C7010197F1F760E38EE800
:101C500095E00E94760683E592E00197F1F760E255
:101C60008EE895E00E94760660919305606240E000
:101C70008EE895E00E948F0684E08093940540E012
:101C80006CE08EE895E00E948F060E94D90602E083
:101C90000093950540E066E08EE895E00E948F068F
:101CA00040E062E08EE895E00E948F068BE39FE1C2
:101CB0000197F1F788E080939A0560E08EE895E05F
:101CC0000E945F0660E080E00E94A60665EE72E07A
:101CD0008EE895E00E94890720917A0530917B0576
:101CE000032E000C440B550B60E077E883E993E08A
:101CF0000E940217CA01B90120E530E040E050E03F
:101D00000E9402172093760530937705409378055B
:101D10005093790560E082E00E94730385EF90E0C4
:101D2000909301018093000180916900836080930A
:101D30006900E89AE091BC04F091BD040083E09151
:101D4000B804F091B9041082E091BA04F091BB0498
:101D50008FEC80831092C404E091C004F091C10420
:101D600086E08083E091BE04F091BF0480818061B1
:101D70008083E091BE04F091BF04808188608083FD
:101D8000E091BE04F091BF04808180688083E0917F
:101D9000BE04F091BF0480818F7D80831092700516
:101DA00010926F0510926E0510926D0510926C05E1
:101DB00010926B058FE190E090937205809371050E
:101DC00090916105963108F047C021E030E03093F2
:101DD0006C0520936B052DE130E030936E05209368
:101DE0006D052DE030E03093700520936F05209154
:101DF000680084E0983048F031E09E3008F430E02C
:101E000081E001C0880F3A95EAF7822B8093680041
:101E10002DE630E0983050F02BE630E09E3030F088
:101E20002CE630E0963110F030E020E03093690588
:101E300020936805292F30E0983008F002C181E036
:101E400001C0880F9A95EAF780936A058091710521
:101E5000909172050197F1F780916F05909170054F
:101E6000892B49F1E0913804F091390425E0E535FA
:101E7000F20709F1309739F0A389B4899C918589DB
:101E8000809589238C93809173058E7F8093730551
:101E9000109237041092360485E595E0909339044A
:101EA00080933804E0916805F091690580819091F4
:101EB0006A05892B80836BEE72E0CE010C960E943E
:101EC0007008BE01645F7F4FCE0101960E94A10899
:101ED000CE0101960E944008CE010C960E94400857
:101EE00064EF72E0CE010C960E947008BE01645F40
:101EF0007F4FCE0101960E94A108CE0101960E945B
:101F00004008CE010C960E94400860E080E00E94EC
:101F1000A60662E073E08EE895E00E9489076FE014
:101F200073E0CE010C960E947008BE01645F7F4F83
:101F3000CE0101960E94A108CE0101960E944008A0
:101F4000CE010C960E94400884E393E00E941B0798
:101F50008823D1F367E373E0CE010C960E947008EA
:101F6000BE01645F7F4FCE0101960E94A108CE01A1
:101F700001960E944008CE010C960E94400862E43F
:101F800073E0CE010C960E947008BE01645F7F4F23
:101F9000CE0101960E94A108CE0101960E94400840
:101FA000CE010C960E94400860E573E0CE010C96CD
:101FB0000E947008BE01645F7F4FCE0101960E94AF
:101FC000A108CE0101960E944008CE010C960E9405
:101FD000400864E673E08CEA94E00E94890761E3BC
:101FE00073E08CEA94E00E9489074BE050E06BE7D5
:101FF00070E0CE0101960E94AF14CE010A960E94B5
:102000009C05082FE981E154E33108F030C00E2E21
:10201000000CFF0BE25FFF4E0C94211740123710AB
:1020200037105412371056123710371037102E1041
:10203000371037104712521250123710371037101E
:102040004E129E3040F42850310981E001C0880FC3
:102050002A95EAF7F9CE2E503109F7CF8A8111E09F
:10206000813629F08B8116E08E3609F017E0CE011B
:1020700005960E949C05E82E48E050E062E770E07B
:10208000CE0101960E94AF14CE0101960E949C05DC
:10209000D82ECE0104960E949C05C82ECE0107962C
:1020A0000E949C05B82E81E08093880488E6809386
:1020B000AA04109289041092AB0460E089E495E0D0
:1020C0000E943006BAE0FB2E8B2D6F2D0E94C016A9
:1020D000682F660F680F660F6B0D89E495E00E940C
:1020E00030068C2D6F2D0E94C016682F660F680F6A
:1020F000660F6C0D89E495E00E9430068D2D6F2DE2
:102100000E94C016682F660F680F660F6D0D89E478
:1021100095E00E94300660E089E495E00E94300678
:102120008E2D6F2D0E94C016682F660F680F660FE8
:102130006E0D89E495E00E943006812F6F2D0E947C
:10214000C016682F660F680F660F610F89E495E06F
:102150000E943006802F6F2D0E94C016682F660FD8
:10216000680F660F600F89E495E00E94300681E0F9
:102170000E9498000E94D90611E0E9E8F0E08491FD
:10218000E5ECF0E09491E1EBF0E00491002361F0E4
:1021900081110E940C02E02FF0E0EE0FFF1FE556C8
:1021A000FF4FA591B4918C9180916004882391F0A8
:1021B00088EC90E00E94C90388E39FEF0E94C90366
:1021C00088EC90E00E94C90388E39FEF0E94C90356
:1021D000109260041093880488E68093AA041092F9
:1021E00089041092AB0460E089E495E00E94300617
:1021F00081E00E949800809187048111FCCF1093A8
:102200008704109386048FEF8093850410928404D2
:1022100086E0809383041093620480916204806D51
:102220008093620480916104813009F041C1109271
:102230006104809162048093BB008091BC0083FDA7
:10224000F8CF85EC8093BC00809187048130E1F366
:102250008091840497E0873010F490918404A3E681
:10226000B4E0ECE3F4E080E0891324C110923B0475
:1022700080933A0489E495E00E94E90589E495E0B9
:102280000E94E9059C01E4E035952795EA95E1F780
:102290002F703327922F990F990F022F091B000FD0
:1022A000080F89E495E00E94E9059C01F4E035956A
:1022B0002795FA95E1F72F703327922F990F990FF1
:1022C000291B622F660FF62EF80E89E495E00E9416
:1022D000E90589E495E00E94E90589E495E00E941A
:1022E000E90589E495E00E94E90560E080E00E944C
:1022F000A6066F2D70E090E080E04AE00E94AF07F4
:102300006DE773E08EE895E00E948907602F70E02A
:1023100090E080E04AE00E94AF0780E480937C0078
:1023200080917A00806480937A0080917A0086FDA3
:10233000FCCF8091780060917900762F682F072E6E
:10234000000C880B990B0E94BF1420E030E040EA9B
:1023500050E40E941E1520E030E040E85AE30E945D
:102360001E1520E030E040E05FE30E94131620E0FD
:1023700030E048EC52E40E941E156B017C014B01D9
:102380005C0160E089E00E94A606A7019601C701F2
:10239000B6010E94BB166FE773E081111BC02601D6
:1023A0003701E89477F82FEF3FEF4FE75FE7C3017E
:1023B000B2010E94BB16811181C02FEF3FEF4FE7A2
:1023C0005FE7C301B2010E94B81418160CF076C082
:1023D00063E873E08EE895E00E9489076BE873E09C
:1023E0008EE895E00E94890785E595E00E94310519
:1023F000892B09F420C261E080E00E94A6066EE805
:1024000073E08EE895E00E9489078DE993E00E94D1
:102410001B07882309F40FC263E373E0CE01CC9657
:102420000E94700883EA93E00E941B0763E373E055
:10243000CE0101960E9470080E946A0597FDB9C0FE
:102440008032910509F4B5C08C871D86ED80FE8031
:10245000FFEFEF1AFF0AB701CE0101960E9448086C
:10246000882351F329813A818D819E81BE01645F69
:102470007F4F820F931F0E943A19FE82ED82DCCFBC
:102480008B8114E0823709F4F2CD18E0F0CD8B8116
:1024900013E0823709F4EBCD15E0E9CD19E0E7CD83
:1024A0001AE0E5CD1BE0E3CD1CE0E1CD12E0DFCD8D
:1024B00085EEC8CE2D9121938F5FD6CE2FEF3FEFC3
:1024C0004FE75FE4C701B6010E94B61618161CF468
:1024D00067E873E07FCF2FEF3FEF4FE75FECC70177
:1024E000B6010E94B81487FDF3CF20E030E0A901C7
:1024F000C701B6010E94B81487FF0CC041E06DE22D
:102500008EE895E00E948F0646015701B7FAB09415
:10251000B7F8B0942AE037ED43EA5BE3C501B401B4
:102520000E9414164B015C010E9487166B017C010E
:102530000E94BD149B01AC01C501B4010E94131699
:102540004B015C014AE0C701B6010E94AF0741E0C0
:102550006EE28EE895E00E948F0620E030E040E2D7
:1025600051E4C501B4010E941E154B015C010E949B
:1025700087166B01F12CE12C4AE0C701B6010E94DD
:10258000AF07C701B6010E94BD149B01AC01C50194
:10259000B4010E94131620E030E040E251E40E94B2
:1025A0001E150E94871690E080E04AE00E94AF0767
:1025B00015CFBE016F5F7F4FCE01CC960E94F5070D
:1025C000CE0101960E944008CE01CC960E940307DE
:1025D0007C019C0150E040E0BE01645C7F4FCE0175
:1025E000C6960E940D09A7014F5F5F4FBE01645C54
:1025F0007F4FCE01C0960E946F09CE01C0960E9407
:1026000003077C019C0150E040E0BE01605D7F4F0C
:10261000CE018A960E940D09A7014F5F5F4FBE0150
:10262000605D7F4FCE0101960E946F09BE016F5F12
:102630007F4FCE01C0960E94F507CE0101960E9401
:102640004008CE01C0960E9403077C019C0150E027
:1026500040E0BE01605D7F4FCE0184960E940D096F
:10266000A7014F5F5F4FBE01605D7F4FCE014E9669
:102670000E946F0945E050E0BE016A5C7F4FCE01C9
:1026800048960E946F0945E050E0BE01665D7F4FAD
:10269000CE0142960E946F0945E050E0BE016C5D9C
:1026A0007F4FCE010C960E946F0947E050E0BE01BB
:1026B000625E7F4FCE0101960E946F09BE016F5F7F
:1026C0007F4F8BE995E00E94F507CE0101960E94AD
:1026D0004008CE01C6960E949807CE018A960E94B5
:1026E0009807CE0148960E949807CE0142960E9414
:1026F00098078BE995E00E94980764E670E080E017
:1027000090E00E946E04CE0148960E94F20661E0BD
:10271000811101C060E08DE00E943502CE01429639
:102720000E94F20661E0811101C060E08BE00E942E
:102730003502CE010C960E94F20661E0811101C0C3
:1027400060E08CE00E9435028BE995E00E94F20681
:10275000882309F44AC03CE1E32E32E0F32E4CE139
:10276000242E41E0342E5CE9C52E51E0D52E6CE9D3
:10277000662E62E0762E74E0472E79E2572EF7013E
:10278000619171917F01C2010E94CC16F1012191EA
:1027900031911F01032E000C440B550B4B01770F99
:1027A000AA08BB08211531054105510521F0F601A4
:1027B000008101114DC00E94AE04C501B4010E9408
:1027C000BF1423E333E343E35FE30E941E150E943B
:1027D0008016072E000C880B990B0E946E0482E075
:1027E000C80ED11C6E147F0451F60E94AE04CE01B7
:1027F0000C960E944008CE0142960E944008CE01ED
:1028000048960E944008CE014E960E944008CE0194
:1028100084960E944008CE018A960E944008CE010C
:10282000C0960E944008CE01C6960E944008CE0184
:10283000CC960E94400880E090E0892B09F49DCC62
:102840000E946901882309F497CC0E94000094CC6F
:102850000B3008F00AE084B1866084B960E072E170
:102860008AE790E00E94E016CA01B901615071093F
:1028700081099109E1E061157105F1E08F0791058A
:1028800048F0672F782F892F9927615071098109A6
:102890009109E4E0709387006093860020918400A2
:1028A0003091850050E040E0621773078407950778
:1028B00020F470938500609384002E2F2061209374
:1028C0008100E02FF0E0EF5EFE4F208130E050E02D
:1028D00040E00E94E01630938B0020938A003093F2
:1028E00089002093880020EB2093800081149104BC
:1028F000A104B10409F461CF0E94A104680D791DFF
:102900008A1D9B1D60935C0470935D0480935E043C
:1029100090935F0480916F00826080936F004DCF31
:1029200084EC92E09093560580935505809138048D
:10293000909139048555954071F4E0916805F091C6
:102940006905908180916A05809589238083109222
:102950003904109238048BE995E00C944008FB018F
:10296000DC0102C005900D9241505040D8F7089507
:102970000E94FA1408F481E00895E89409C097FBD6
:102980003EF490958095709561957F4F8F4F9F4F46
:102990009923A9F0F92F96E9BB279395F69587958A
:1029A00077956795B795F111F8CFFAF4BB0F11F44D
:1029B00060FF1BC06F5F7F4F8F4F9F4F16C08823F4
:1029C00011F096E911C0772321F09EE8872F762F2A
:1029D00005C0662371F096E8862F70E060E02AF06B
:1029E0009A95660F771F881FDAF7880F9695879557
:1029F00097F90895990F0008550FAA0BE0E8FEEF2C
:102A000016161706E807F907C0F012161306E407B2
:102A1000F50798F0621B730B840B950B39F40A26AB
:102A200061F0232B242B252B21F408950A2609F489
:102A3000A140A6958FEF811D811D08950E9431153B
:102A40000C94A2150E94941538F00E949B1520F05A
:102A5000952311F00C948B150C94911511240C9462
:102A6000D6150E94B31570F3959FC1F3950F50E0F2
:102A7000551F629FF001729FBB27F00DB11D639F30
:102A8000AA27F00DB11DAA1F649F6627B00DA11DD6
:102A9000661F829F2227B00DA11D621F739FB00D7C
:102AA000A11D621F839FA00D611D221F749F3327EC
:102AB000A00D611D231F849F600D211D822F762F85
:102AC0006A2F11249F5750409AF0F1F088234AF062
:102AD000EE0FFF1FBB1F661F771F881F91505040CE
:102AE000A9F79E3F510580F00C948B150C94D615D8
:102AF0005F3FE4F3983ED4F3869577956795B79555
:102B0000F795E7959F5FC1F7FE2B880F911D96956E
:102B1000879597F9089597F99F6780E870E060E0DE
:102B200008959FEF80EC089500240A941616170666
:102B300018060906089500240A94121613061406AE
:102B400005060895092E0394000C11F4882352F011
:102B5000BB0F40F4BF2B11F460FF04C06F5F7F4FC9
:102B60008F4F9F4F089557FD9058440F551F59F0B0
:102B70005F3F71F04795880F97FB991F61F09F3F6A
:102B800079F087950895121613061406551FF2CF93
:102B90004695F1DF08C0161617061806991FF1CFE3
:102BA00086957105610508940895E894BB2766270A
:102BB0007727CB0197F908952F923F924F925F921A
:102BC0006F927F928F929F92AF92BF92CF92DF923D
:102BD000EF92FF920F931F93CF93DF93CDB7DEB7A2
:102BE000CA1BDB0B0FB6F894DEBF0FBECDBF099436
:102BF0002A88398848885F846E847D848C849B848D
:102C0000AA84B984C884DF80EE80FD800C811B819A
:102C1000AA81B981CE0FD11D0FB6F894DEBF0FBEC9
:102C2000CDBFED0108955058BB27AA270E942B164F
:102C30000C94A2150E94941538F00E949B1520F068
:102C400039F49F3F19F426F40C9491150EF4E09595
:102C5000E7FB0C948B15E92F0E94B31558F3BA17B4
:102C6000620773078407950720F079F4A6F50C94A2
:102C7000D5150EF4E0950B2EBA2FA02D0B01B9013E
:102C800090010C01CA01A0011124FF27591B99F0E2
:102C9000593F50F4503E68F11A16F040A22F232FEE
:102CA000342F4427585FF3CF469537952795A7953E
:102CB000F0405395C9F77EF41F16BA0B620B730BE5
:102CC000840BBAF09150A1F0FF0FBB1F661F771F56
:102CD000881FC2F70EC0BA0F621F731F841F48F40B
:102CE000879577956795B795F7959E3F08F0B0CF94
:102CF0009395880F08F09927EE0F9795879508957B
:102D00000E9487166894B1110C94D61508950E94FC
:102D1000BB1588F09F5798F0B92F9927B751B0F09D
:102D2000E1F0660F771F881F991F1AF0BA95C9F74F
:102D300014C0B13091F00E94D515B1E008950C9403
:102D4000D515672F782F8827B85F39F0B93FCCF3B6
:102D5000869577956795B395D9F73EF490958095CC
:102D6000709561957F4F8F4F9F4F08950E94FA1481
:102D700008F48FEF08950E94FA14880B990B0895B8
:102D8000991B79E004C0991F961708F0961B881FBD
:102D90007A95C9F78095089597FB072E16F400944D
:102DA00007D077FD09D00E94271707FC05D03EF415
:102DB000909581959F4F0895709561957F4F0895E7
:102DC000A1E21A2EAA1BBB1BFD010DC0AA1FBB1F2F
:102DD000EE1FFF1FA217B307E407F50720F0A21BA1
:102DE000B30BE40BF50B661F771F881F991F1A940E
:102DF00069F760957095809590959B01AC01BD0138
:102E0000CF010895052E97FB1EF400940E94191718
:102E100057FD07D00E94E01607FC03D04EF40C9437
:102E2000191750954095309521953F4F4F4F5F4F63
:102E3000089590958095709561957F4F8F4F9F4F26
:102E40000895EE0FFF1F0590F491E02D0994AA1B41
:102E5000BB1B51E107C0AA1FBB1FA617B70710F085
:102E6000A61BB70B881F991F5A95A9F780959095B7
:102E7000BC01CD0108950F931F93CF93DF93823050
:102E8000910510F482E090E0E091A305F091A40593
:102E900030E020E0B0E0A0E0309799F42115310552
:102EA00009F44AC0281B390B24303105D8F58A8132
:102EB0009B816115710589F1FB0193838283FE017A
:102EC00011C0408151810281138148175907E0F0F8
:102ED0004817590799F4109761F012960C931297BE
:102EE00013961C933296CF01DF91CF911F910F91D2
:102EF00008950093A3051093A405F4CF211531057F
:102F000051F04217530738F0A901DB019A01BD01C6
:102F1000DF01F801C1CFEF01F9CF9093A4058093B1
:102F2000A305CDCFFE01E20FF31F819391932250B1
:102F3000310939832883D7CF2091A1053091A2058B
:102F4000232B41F420910601309107013093A20513
:102F50002093A1052091040130910501211531052F
:102F600041F42DB73EB74091080150910901241B4F
:102F7000350BE091A105F091A205E217F307A0F44B
:102F80002E1B3F0B2817390778F0AC014E5F5F4FBF
:102F90002417350748F04E0F5F1F5093A20540934A
:102FA000A105819391939FCFF0E0E0E09CCFCF9378
:102FB000DF930097E9F0FC01329713821282A0910F
:102FC000A305B091A405ED0130E020E01097A1F435
:102FD00020813181820F931F2091A1053091A2059C
:102FE0002817390709F061C0F093A205E093A10505
:102FF000DF91CF910895EA01CE17DF07E8F54A8106
:103000005B819E0141155105B1F7E901FB83EA831C
:1030100049915991C40FD51FEC17FD0761F48081C8
:1030200091810296840F951FE9019983888382819B
:1030300093819B838A83F0E0E0E012968D919C91CE
:1030400013970097B9F52D913C911197CD010296F8
:10305000820F931F2091A1053091A20528173907EF
:1030600039F6309751F51092A4051092A305B0934C
:10307000A205A093A105BCCFD383C2834081518117
:10308000840F951FC817D90761F44E5F5F4F888181
:103090009981480F591F518340838A819B81938373
:1030A00082832115310509F0B0CFF093A405E09398
:1030B000A3059ECFFD01DC01C0CF13821282D7CFC2
:1030C000B0E0A0E0E6E6F8E10C94DE158C01009794
:1030D00051F4CB010E943B178C01C801CDB7DEB77C
:1030E000E0E10C94FA15FC01E60FF71F9C01225059
:1030F0003109E217F30708F49DC0D901CD91DC91A5
:103100001197C617D70798F0C530D10530F3CE0117
:1031100004978617970708F3C61BD70B2297C1930E
:10312000D1936D937C93CF010E94D717D6CF5B01CB
:10313000AC1ABD0A4C018C0E9D1EA091A305B09146
:10314000A405512C412CF12CE12C109731F58091E4
:10315000A1059091A2058815990509F05CC0461655
:10316000570608F058C0809104019091050100971E
:1031700041F48DB79EB74091080150910901841B1D
:10318000950BE817F90708F055C0F093A205E093F6
:10319000A105F90171836083A0CF8D919C91119756
:1031A00012966C90129713967C901397A815B905F8
:1031B00059F56C0142E0C40ED11CCA14DB0420F1A5
:1031C000AC014A195B09DA011296159780F0628208
:1031D000738251834083D9016D937C93E114F10490
:1031E00071F0D7011396FC93EE93129776CF229647
:1031F0008C0F9D1FF90191838083F301EFCFF09332
:10320000A405E093A30569CF4816590608F42C01DC
:103210007D01D3019ACFCB010E943B177C0100971F
:1032200049F0AE01B8010E941D19C8010E94D717CC
:10323000870153CF10E000E050CFFB01DC0102C05A
:1032400001900D9241505040D8F70895FC018191B2
:10325000861721F08823D9F7992708953197CF0150
:103260000895FB01DC018D91019080190110D9F3C3
:10327000990B0895FB01DC0101900D920020E1F70C
:10328000089510E0CDE6D0E004C0FE010E942117B1
:0C3290002196CE36D107C9F7F894FFCF85
:10329C00AD04AD040000A505800000004000140042
:1032AC005400C864433228211D160B024A017201D6
:1032BC009F019F01B801B8019F01B801B801EE014F
:1032CC00B8019F01B801B801000000009F01B801CE
:1032DC00B8019F01B801B801EE01B801EE012A0254
:1032EC002A02EE012A02EE01B80100002A02EE01C8
:1032FC00EE0100002A02EE01EE012A02B801EE01F5
:10330C009F01B801EE019F01B8019F0172012A02D1
:10331C00EE01B8019F01B801B8019F01B801B801D5
:10332C00EE01B8019F019F01B801B8010100010035
:10333C000200020002000300030004000400040069
:10334C00050005000200060003000200070007004C
:10335C00020004000500060007000200080002003D
:10336C00030004000500060007000300050005002B
:10337C000500050005000500050005000500050019
:10338C0005000500050005000500080009000800FF
:10339C0009000900080008000800070006000500E5
:1033AC0005000400040003000200010014001400D6
:1033BC001E00140014000600140014000C0014006D
:1033CC001E001400140006000F000F00140014005F
:1033DC000600140014000C0014001E00140014004D
:1033EC000A000F003C003C0006000F000F001E00FE
:1033FC000A000F000F001E000F000A00140014003A
:10340C001E00140014001E003C003C000F001400B1
:10341C0014001E00140014000600140014000A000E
:10342C003C001E003C0014001400060000000000CC
:10343C009F01FF002C01EC015D013B014F010000DD
:10344C000000300603067306D404FC05E905DA0512
:10345C0000000000D504FF007306D40431054905B3
:10346C00BC0400000000EC06FF007306FE004F4E8B
:10347C00004F46460053657475700041542B5253EF
:10348C00540D0A0041542B43574D4F44453D310DCB
:10349C000A00436F6E656374696E672E2E2E0041B1
:1034AC00542B43574A41503D226172697374615FDA
:1034BC00686F6D65222C22666965737461313164A5
:1034CC00220D0A004F4B0041542B43494653520DD9
:1034DC000A0041542B4349504D55583D310D0A00BB
:1034EC0041542B4349505345525645523D312C388B
:1034FC00300D0A00436C6F636B206973206E6F7420
:10350C002072756E6E696E6721203A2F003A006E3C
:10351C00616E00696E66006F7666002A430057691B
:10352C00666920436F6E6E6563746564002B495049
:06353C00442C003F0000DA
:00000001FF
